{
  "_format": "hh-sol-artifact-1",
  "contractName": "KOL",
  "sourceName": "contracts/KOL.sol",
  "abi": [
    {
      "inputs": [],
      "stateMutability": "nonpayable",
      "type": "constructor"
    },
    {
      "anonymous": false,
      "inputs": [
        {
          "indexed": true,
          "internalType": "address",
          "name": "owner",
          "type": "address"
        },
        {
          "indexed": true,
          "internalType": "address",
          "name": "approved",
          "type": "address"
        },
        {
          "indexed": true,
          "internalType": "uint256",
          "name": "tokenId",
          "type": "uint256"
        }
      ],
      "name": "Approval",
      "type": "event"
    },
    {
      "anonymous": false,
      "inputs": [
        {
          "indexed": true,
          "internalType": "address",
          "name": "owner",
          "type": "address"
        },
        {
          "indexed": true,
          "internalType": "address",
          "name": "operator",
          "type": "address"
        },
        {
          "indexed": false,
          "internalType": "bool",
          "name": "approved",
          "type": "bool"
        }
      ],
      "name": "ApprovalForAll",
      "type": "event"
    },
    {
      "anonymous": false,
      "inputs": [
        {
          "indexed": true,
          "internalType": "address",
          "name": "previousOwner",
          "type": "address"
        },
        {
          "indexed": true,
          "internalType": "address",
          "name": "newOwner",
          "type": "address"
        }
      ],
      "name": "OwnershipTransferred",
      "type": "event"
    },
    {
      "anonymous": false,
      "inputs": [
        {
          "indexed": true,
          "internalType": "address",
          "name": "from",
          "type": "address"
        },
        {
          "indexed": true,
          "internalType": "address",
          "name": "to",
          "type": "address"
        },
        {
          "indexed": true,
          "internalType": "uint256",
          "name": "tokenId",
          "type": "uint256"
        }
      ],
      "name": "Transfer",
      "type": "event"
    },
    {
      "inputs": [
        {
          "internalType": "address",
          "name": "to",
          "type": "address"
        },
        {
          "internalType": "uint256",
          "name": "tokenId",
          "type": "uint256"
        }
      ],
      "name": "approve",
      "outputs": [],
      "stateMutability": "nonpayable",
      "type": "function"
    },
    {
      "inputs": [
        {
          "internalType": "address",
          "name": "owner",
          "type": "address"
        }
      ],
      "name": "balanceOf",
      "outputs": [
        {
          "internalType": "uint256",
          "name": "",
          "type": "uint256"
        }
      ],
      "stateMutability": "view",
      "type": "function"
    },
    {
      "inputs": [
        {
          "internalType": "uint256",
          "name": "tokenId",
          "type": "uint256"
        }
      ],
      "name": "burn",
      "outputs": [],
      "stateMutability": "nonpayable",
      "type": "function"
    },
    {
      "inputs": [
        {
          "internalType": "uint256",
          "name": "tokenId",
          "type": "uint256"
        }
      ],
      "name": "getApproved",
      "outputs": [
        {
          "internalType": "address",
          "name": "",
          "type": "address"
        }
      ],
      "stateMutability": "view",
      "type": "function"
    },
    {
      "inputs": [
        {
          "internalType": "address",
          "name": "owner",
          "type": "address"
        },
        {
          "internalType": "address",
          "name": "operator",
          "type": "address"
        }
      ],
      "name": "isApprovedForAll",
      "outputs": [
        {
          "internalType": "bool",
          "name": "",
          "type": "bool"
        }
      ],
      "stateMutability": "view",
      "type": "function"
    },
    {
      "inputs": [],
      "name": "name",
      "outputs": [
        {
          "internalType": "string",
          "name": "",
          "type": "string"
        }
      ],
      "stateMutability": "view",
      "type": "function"
    },
    {
      "inputs": [],
      "name": "owner",
      "outputs": [
        {
          "internalType": "address",
          "name": "",
          "type": "address"
        }
      ],
      "stateMutability": "view",
      "type": "function"
    },
    {
      "inputs": [
        {
          "internalType": "uint256",
          "name": "tokenId",
          "type": "uint256"
        }
      ],
      "name": "ownerOf",
      "outputs": [
        {
          "internalType": "address",
          "name": "",
          "type": "address"
        }
      ],
      "stateMutability": "view",
      "type": "function"
    },
    {
      "inputs": [],
      "name": "renounceOwnership",
      "outputs": [],
      "stateMutability": "nonpayable",
      "type": "function"
    },
    {
      "inputs": [
        {
          "internalType": "address",
          "name": "to",
          "type": "address"
        }
      ],
      "name": "safeMint",
      "outputs": [],
      "stateMutability": "nonpayable",
      "type": "function"
    },
    {
      "inputs": [
        {
          "internalType": "address",
          "name": "from",
          "type": "address"
        },
        {
          "internalType": "address",
          "name": "to",
          "type": "address"
        },
        {
          "internalType": "uint256",
          "name": "tokenId",
          "type": "uint256"
        }
      ],
      "name": "safeTransferFrom",
      "outputs": [],
      "stateMutability": "nonpayable",
      "type": "function"
    },
    {
      "inputs": [
        {
          "internalType": "address",
          "name": "from",
          "type": "address"
        },
        {
          "internalType": "address",
          "name": "to",
          "type": "address"
        },
        {
          "internalType": "uint256",
          "name": "tokenId",
          "type": "uint256"
        },
        {
          "internalType": "bytes",
          "name": "_data",
          "type": "bytes"
        }
      ],
      "name": "safeTransferFrom",
      "outputs": [],
      "stateMutability": "nonpayable",
      "type": "function"
    },
    {
      "inputs": [
        {
          "internalType": "address",
          "name": "operator",
          "type": "address"
        },
        {
          "internalType": "bool",
          "name": "approved",
          "type": "bool"
        }
      ],
      "name": "setApprovalForAll",
      "outputs": [],
      "stateMutability": "nonpayable",
      "type": "function"
    },
    {
      "inputs": [
        {
          "internalType": "bytes4",
          "name": "interfaceId",
          "type": "bytes4"
        }
      ],
      "name": "supportsInterface",
      "outputs": [
        {
          "internalType": "bool",
          "name": "",
          "type": "bool"
        }
      ],
      "stateMutability": "view",
      "type": "function"
    },
    {
      "inputs": [],
      "name": "symbol",
      "outputs": [
        {
          "internalType": "string",
          "name": "",
          "type": "string"
        }
      ],
      "stateMutability": "view",
      "type": "function"
    },
    {
      "inputs": [
        {
          "internalType": "uint256",
          "name": "tokenId",
          "type": "uint256"
        }
      ],
      "name": "tokenURI",
      "outputs": [
        {
          "internalType": "string",
          "name": "",
          "type": "string"
        }
      ],
      "stateMutability": "view",
      "type": "function"
    },
    {
      "inputs": [
        {
          "internalType": "address",
          "name": "from",
          "type": "address"
        },
        {
          "internalType": "address",
          "name": "to",
          "type": "address"
        },
        {
          "internalType": "uint256",
          "name": "tokenId",
          "type": "uint256"
        }
      ],
      "name": "transferFrom",
      "outputs": [],
      "stateMutability": "nonpayable",
      "type": "function"
    },
    {
      "inputs": [
        {
          "internalType": "address",
          "name": "newOwner",
          "type": "address"
        }
      ],
      "name": "transferOwnership",
      "outputs": [],
      "stateMutability": "nonpayable",
      "type": "function"
    }
  ],
  "bytecode": "0x60806040523480156200001157600080fd5b506040518060400160405280600381526020017f4b4f4c00000000000000000000000000000000000000000000000000000000008152506040518060400160405280600381526020017f4b4f4c0000000000000000000000000000000000000000000000000000000000815250816000908051906020019062000096929190620001a6565b508060019080519060200190620000af929190620001a6565b505050620000d2620000c6620000d860201b60201c565b620000e060201b60201c565b620002bb565b600033905090565b6000600660009054906101000a900473ffffffffffffffffffffffffffffffffffffffff16905081600660006101000a81548173ffffffffffffffffffffffffffffffffffffffff021916908373ffffffffffffffffffffffffffffffffffffffff1602179055508173ffffffffffffffffffffffffffffffffffffffff168173ffffffffffffffffffffffffffffffffffffffff167f8be0079c531659141344cd1fd0a4f28419497f9722a3daafe3b4186f6b6457e060405160405180910390a35050565b828054620001b49062000256565b90600052602060002090601f016020900481019282620001d8576000855562000224565b82601f10620001f357805160ff191683800117855562000224565b8280016001018555821562000224579182015b828111156200022357825182559160200191906001019062000206565b5b50905062000233919062000237565b5090565b5b808211156200025257600081600090555060010162000238565b5090565b600060028204905060018216806200026f57607f821691505b602082108114156200028657620002856200028c565b5b50919050565b7f4e487b7100000000000000000000000000000000000000000000000000000000600052602260045260246000fd5b612dad80620002cb6000396000f3fe608060405234801561001057600080fd5b50600436106101165760003560e01c806370a08231116100a2578063a22cb46511610071578063a22cb465146102cb578063b88d4fde146102e7578063c87b56dd14610303578063e985e9c514610333578063f2fde38b1461036357610116565b806370a0823114610255578063715018a6146102855780638da5cb5b1461028f57806395d89b41146102ad57610116565b806323b872dd116100e957806323b872dd146101b557806340d097c3146101d157806342842e0e146101ed57806342966c68146102095780636352211e1461022557610116565b806301ffc9a71461011b57806306fdde031461014b578063081812fc14610169578063095ea7b314610199575b600080fd5b61013560048036038101906101309190611df3565b61037f565b604051610142919061221c565b60405180910390f35b610153610461565b6040516101609190612237565b60405180910390f35b610183600480360381019061017e9190611e45565b6104f3565b60405161019091906121b5565b60405180910390f35b6101b360048036038101906101ae9190611db7565b610578565b005b6101cf60048036038101906101ca9190611cb1565b610690565b005b6101eb60048036038101906101e69190611c4c565b6106f0565b005b61020760048036038101906102029190611cb1565b610716565b005b610223600480360381019061021e9190611e45565b610736565b005b61023f600480360381019061023a9190611e45565b610792565b60405161024c91906121b5565b60405180910390f35b61026f600480360381019061026a9190611c4c565b610844565b60405161027c9190612479565b60405180910390f35b61028d6108fc565b005b610297610984565b6040516102a491906121b5565b60405180910390f35b6102b56109ae565b6040516102c29190612237565b60405180910390f35b6102e560048036038101906102e09190611d7b565b610a40565b005b61030160048036038101906102fc9190611d00565b610a56565b005b61031d60048036038101906103189190611e45565b610ab8565b60405161032a9190612237565b60405180910390f35b61034d60048036038101906103489190611c75565b610b5f565b60405161035a919061221c565b60405180910390f35b61037d60048036038101906103789190611c4c565b610bf3565b005b60007f80ac58cd000000000000000000000000000000000000000000000000000000007bffffffffffffffffffffffffffffffffffffffffffffffffffffffff1916827bffffffffffffffffffffffffffffffffffffffffffffffffffffffff1916148061044a57507f5b5e139f000000000000000000000000000000000000000000000000000000007bffffffffffffffffffffffffffffffffffffffffffffffffffffffff1916827bffffffffffffffffffffffffffffffffffffffffffffffffffffffff1916145b8061045a575061045982610ceb565b5b9050919050565b6060600080546104709061269e565b80601f016020809104026020016040519081016040528092919081815260200182805461049c9061269e565b80156104e95780601f106104be576101008083540402835291602001916104e9565b820191906000526020600020905b8154815290600101906020018083116104cc57829003601f168201915b5050505050905090565b60006104fe82610d55565b61053d576040517f08c379a0000000000000000000000000000000000000000000000000000000008152600401610534906123b9565b60405180910390fd5b6004600083815260200190815260200160002060009054906101000a900473ffffffffffffffffffffffffffffffffffffffff169050919050565b600061058382610792565b90508073ffffffffffffffffffffffffffffffffffffffff168373ffffffffffffffffffffffffffffffffffffffff1614156105f4576040517f08c379a00000000000000000000000000000000000000000000000000000000081526004016105eb90612419565b60405180910390fd5b8073ffffffffffffffffffffffffffffffffffffffff16610613610dc1565b73ffffffffffffffffffffffffffffffffffffffff16148061064257506106418161063c610dc1565b610b5f565b5b610681576040517f08c379a000000000000000000000000000000000000000000000000000000000815260040161067890612339565b60405180910390fd5b61068b8383610dc9565b505050565b6106a161069b610dc1565b82610e82565b6106e0576040517f08c379a00000000000000000000000000000000000000000000000000000000081526004016106d790612439565b60405180910390fd5b6106eb838383610f60565b505050565b60006106fc60076111c7565b905061070860076111d5565b61071282826111eb565b5050565b61073183838360405180602001604052806000815250610a56565b505050565b610747610741610dc1565b82610e82565b610786576040517f08c379a000000000000000000000000000000000000000000000000000000000815260040161077d90612459565b60405180910390fd5b61078f81611209565b50565b6000806002600084815260200190815260200160002060009054906101000a900473ffffffffffffffffffffffffffffffffffffffff169050600073ffffffffffffffffffffffffffffffffffffffff168173ffffffffffffffffffffffffffffffffffffffff16141561083b576040517f08c379a000000000000000000000000000000000000000000000000000000000815260040161083290612379565b60405180910390fd5b80915050919050565b60008073ffffffffffffffffffffffffffffffffffffffff168273ffffffffffffffffffffffffffffffffffffffff1614156108b5576040517f08c379a00000000000000000000000000000000000000000000000000000000081526004016108ac90612359565b60405180910390fd5b600360008373ffffffffffffffffffffffffffffffffffffffff1673ffffffffffffffffffffffffffffffffffffffff168152602001908152602001600020549050919050565b610904610dc1565b73ffffffffffffffffffffffffffffffffffffffff16610922610984565b73ffffffffffffffffffffffffffffffffffffffff1614610978576040517f08c379a000000000000000000000000000000000000000000000000000000000815260040161096f906123d9565b60405180910390fd5b6109826000611326565b565b6000600660009054906101000a900473ffffffffffffffffffffffffffffffffffffffff16905090565b6060600180546109bd9061269e565b80601f01602080910402602001604051908101604052809291908181526020018280546109e99061269e565b8015610a365780601f10610a0b57610100808354040283529160200191610a36565b820191906000526020600020905b815481529060010190602001808311610a1957829003601f168201915b5050505050905090565b610a52610a4b610dc1565b83836113ec565b5050565b610a67610a61610dc1565b83610e82565b610aa6576040517f08c379a0000000000000000000000000000000000000000000000000000000008152600401610a9d90612439565b60405180910390fd5b610ab284848484611559565b50505050565b6060610ac382610d55565b610b02576040517f08c379a0000000000000000000000000000000000000000000000000000000008152600401610af9906123f9565b60405180910390fd5b6000610b0c6115b5565b90506000815111610b2c5760405180602001604052806000815250610b57565b80610b36846115d5565b604051602001610b47929190612191565b6040516020818303038152906040525b915050919050565b6000600560008473ffffffffffffffffffffffffffffffffffffffff1673ffffffffffffffffffffffffffffffffffffffff16815260200190815260200160002060008373ffffffffffffffffffffffffffffffffffffffff1673ffffffffffffffffffffffffffffffffffffffff16815260200190815260200160002060009054906101000a900460ff16905092915050565b610bfb610dc1565b73ffffffffffffffffffffffffffffffffffffffff16610c19610984565b73ffffffffffffffffffffffffffffffffffffffff1614610c6f576040517f08c379a0000000000000000000000000000000000000000000000000000000008152600401610c66906123d9565b60405180910390fd5b600073ffffffffffffffffffffffffffffffffffffffff168173ffffffffffffffffffffffffffffffffffffffff161415610cdf576040517f08c379a0000000000000000000000000000000000000000000000000000000008152600401610cd690612279565b60405180910390fd5b610ce881611326565b50565b60007f01ffc9a7000000000000000000000000000000000000000000000000000000007bffffffffffffffffffffffffffffffffffffffffffffffffffffffff1916827bffffffffffffffffffffffffffffffffffffffffffffffffffffffff1916149050919050565b60008073ffffffffffffffffffffffffffffffffffffffff166002600084815260200190815260200160002060009054906101000a900473ffffffffffffffffffffffffffffffffffffffff1673ffffffffffffffffffffffffffffffffffffffff1614159050919050565b600033905090565b816004600083815260200190815260200160002060006101000a81548173ffffffffffffffffffffffffffffffffffffffff021916908373ffffffffffffffffffffffffffffffffffffffff160217905550808273ffffffffffffffffffffffffffffffffffffffff16610e3c83610792565b73ffffffffffffffffffffffffffffffffffffffff167f8c5be1e5ebec7d5bd14f71427d1e84f3dd0314c0f7b2291e5b200ac8c7c3b92560405160405180910390a45050565b6000610e8d82610d55565b610ecc576040517f08c379a0000000000000000000000000000000000000000000000000000000008152600401610ec390612319565b60405180910390fd5b6000610ed783610792565b90508073ffffffffffffffffffffffffffffffffffffffff168473ffffffffffffffffffffffffffffffffffffffff161480610f4657508373ffffffffffffffffffffffffffffffffffffffff16610f2e846104f3565b73ffffffffffffffffffffffffffffffffffffffff16145b80610f575750610f568185610b5f565b5b91505092915050565b8273ffffffffffffffffffffffffffffffffffffffff16610f8082610792565b73ffffffffffffffffffffffffffffffffffffffff1614610fd6576040517f08c379a0000000000000000000000000000000000000000000000000000000008152600401610fcd90612299565b60405180910390fd5b600073ffffffffffffffffffffffffffffffffffffffff168273ffffffffffffffffffffffffffffffffffffffff161415611046576040517f08c379a000000000000000000000000000000000000000000000000000000000815260040161103d906122d9565b60405180910390fd5b611051838383611782565b61105c600082610dc9565b6001600360008573ffffffffffffffffffffffffffffffffffffffff1673ffffffffffffffffffffffffffffffffffffffff16815260200190815260200160002060008282546110ac91906125b4565b925050819055506001600360008473ffffffffffffffffffffffffffffffffffffffff1673ffffffffffffffffffffffffffffffffffffffff1681526020019081526020016000206000828254611103919061252d565b92505081905550816002600083815260200190815260200160002060006101000a81548173ffffffffffffffffffffffffffffffffffffffff021916908373ffffffffffffffffffffffffffffffffffffffff160217905550808273ffffffffffffffffffffffffffffffffffffffff168473ffffffffffffffffffffffffffffffffffffffff167fddf252ad1be2c89b69c2b068fc378daa952ba7f163c4a11628f55a4df523b3ef60405160405180910390a46111c2838383611787565b505050565b600081600001549050919050565b6001816000016000828254019250508190555050565b61120582826040518060200160405280600081525061178c565b5050565b600061121482610792565b905061122281600084611782565b61122d600083610dc9565b6001600360008373ffffffffffffffffffffffffffffffffffffffff1673ffffffffffffffffffffffffffffffffffffffff168152602001908152602001600020600082825461127d91906125b4565b925050819055506002600083815260200190815260200160002060006101000a81549073ffffffffffffffffffffffffffffffffffffffff021916905581600073ffffffffffffffffffffffffffffffffffffffff168273ffffffffffffffffffffffffffffffffffffffff167fddf252ad1be2c89b69c2b068fc378daa952ba7f163c4a11628f55a4df523b3ef60405160405180910390a461132281600084611787565b5050565b6000600660009054906101000a900473ffffffffffffffffffffffffffffffffffffffff16905081600660006101000a81548173ffffffffffffffffffffffffffffffffffffffff021916908373ffffffffffffffffffffffffffffffffffffffff1602179055508173ffffffffffffffffffffffffffffffffffffffff168173ffffffffffffffffffffffffffffffffffffffff167f8be0079c531659141344cd1fd0a4f28419497f9722a3daafe3b4186f6b6457e060405160405180910390a35050565b8173ffffffffffffffffffffffffffffffffffffffff168373ffffffffffffffffffffffffffffffffffffffff16141561145b576040517f08c379a0000000000000000000000000000000000000000000000000000000008152600401611452906122f9565b60405180910390fd5b80600560008573ffffffffffffffffffffffffffffffffffffffff1673ffffffffffffffffffffffffffffffffffffffff16815260200190815260200160002060008473ffffffffffffffffffffffffffffffffffffffff1673ffffffffffffffffffffffffffffffffffffffff16815260200190815260200160002060006101000a81548160ff0219169083151502179055508173ffffffffffffffffffffffffffffffffffffffff168373ffffffffffffffffffffffffffffffffffffffff167f17307eab39ab6107e8899845ad3d59bd9653f200f220920489ca2b5937696c318360405161154c919061221c565b60405180910390a3505050565b611564848484610f60565b611570848484846117e7565b6115af576040517f08c379a00000000000000000000000000000000000000000000000000000000081526004016115a690612259565b60405180910390fd5b50505050565b60606040518060600160405280602c8152602001612d4c602c9139905090565b6060600082141561161d576040518060400160405280600181526020017f3000000000000000000000000000000000000000000000000000000000000000815250905061177d565b600082905060005b6000821461164f57808061163890612701565b915050600a826116489190612583565b9150611625565b60008167ffffffffffffffff811115611691577f4e487b7100000000000000000000000000000000000000000000000000000000600052604160045260246000fd5b6040519080825280601f01601f1916602001820160405280156116c35781602001600182028036833780820191505090505b5090505b60008514611776576001826116dc91906125b4565b9150600a856116eb919061274a565b60306116f7919061252d565b60f81b818381518110611733577f4e487b7100000000000000000000000000000000000000000000000000000000600052603260045260246000fd5b60200101907effffffffffffffffffffffffffffffffffffffffffffffffffffffffffffff1916908160001a905350600a8561176f9190612583565b94506116c7565b8093505050505b919050565b505050565b505050565b611796838361197e565b6117a360008484846117e7565b6117e2576040517f08c379a00000000000000000000000000000000000000000000000000000000081526004016117d990612259565b60405180910390fd5b505050565b60006118088473ffffffffffffffffffffffffffffffffffffffff16611b58565b15611971578373ffffffffffffffffffffffffffffffffffffffff1663150b7a02611831610dc1565b8786866040518563ffffffff1660e01b815260040161185394939291906121d0565b602060405180830381600087803b15801561186d57600080fd5b505af192505050801561189e57506040513d601f19601f8201168201806040525081019061189b9190611e1c565b60015b611921573d80600081146118ce576040519150601f19603f3d011682016040523d82523d6000602084013e6118d3565b606091505b50600081511415611919576040517f08c379a000000000000000000000000000000000000000000000000000000000815260040161191090612259565b60405180910390fd5b805181602001fd5b63150b7a0260e01b7bffffffffffffffffffffffffffffffffffffffffffffffffffffffff1916817bffffffffffffffffffffffffffffffffffffffffffffffffffffffff191614915050611976565b600190505b949350505050565b600073ffffffffffffffffffffffffffffffffffffffff168273ffffffffffffffffffffffffffffffffffffffff1614156119ee576040517f08c379a00000000000000000000000000000000000000000000000000000000081526004016119e590612399565b60405180910390fd5b6119f781610d55565b15611a37576040517f08c379a0000000000000000000000000000000000000000000000000000000008152600401611a2e906122b9565b60405180910390fd5b611a4360008383611782565b6001600360008473ffffffffffffffffffffffffffffffffffffffff1673ffffffffffffffffffffffffffffffffffffffff1681526020019081526020016000206000828254611a93919061252d565b92505081905550816002600083815260200190815260200160002060006101000a81548173ffffffffffffffffffffffffffffffffffffffff021916908373ffffffffffffffffffffffffffffffffffffffff160217905550808273ffffffffffffffffffffffffffffffffffffffff16600073ffffffffffffffffffffffffffffffffffffffff167fddf252ad1be2c89b69c2b068fc378daa952ba7f163c4a11628f55a4df523b3ef60405160405180910390a4611b5460008383611787565b5050565b6000808273ffffffffffffffffffffffffffffffffffffffff163b119050919050565b6000611b8e611b89846124b9565b612494565b905082815260208101848484011115611ba657600080fd5b611bb184828561265c565b509392505050565b600081359050611bc881612cef565b92915050565b600081359050611bdd81612d06565b92915050565b600081359050611bf281612d1d565b92915050565b600081519050611c0781612d1d565b92915050565b600082601f830112611c1e57600080fd5b8135611c2e848260208601611b7b565b91505092915050565b600081359050611c4681612d34565b92915050565b600060208284031215611c5e57600080fd5b6000611c6c84828501611bb9565b91505092915050565b60008060408385031215611c8857600080fd5b6000611c9685828601611bb9565b9250506020611ca785828601611bb9565b9150509250929050565b600080600060608486031215611cc657600080fd5b6000611cd486828701611bb9565b9350506020611ce586828701611bb9565b9250506040611cf686828701611c37565b9150509250925092565b60008060008060808587031215611d1657600080fd5b6000611d2487828801611bb9565b9450506020611d3587828801611bb9565b9350506040611d4687828801611c37565b925050606085013567ffffffffffffffff811115611d6357600080fd5b611d6f87828801611c0d565b91505092959194509250565b60008060408385031215611d8e57600080fd5b6000611d9c85828601611bb9565b9250506020611dad85828601611bce565b9150509250929050565b60008060408385031215611dca57600080fd5b6000611dd885828601611bb9565b9250506020611de985828601611c37565b9150509250929050565b600060208284031215611e0557600080fd5b6000611e1384828501611be3565b91505092915050565b600060208284031215611e2e57600080fd5b6000611e3c84828501611bf8565b91505092915050565b600060208284031215611e5757600080fd5b6000611e6584828501611c37565b91505092915050565b611e77816125e8565b82525050565b611e86816125fa565b82525050565b6000611e97826124ea565b611ea18185612500565b9350611eb181856020860161266b565b611eba81612837565b840191505092915050565b6000611ed0826124f5565b611eda8185612511565b9350611eea81856020860161266b565b611ef381612837565b840191505092915050565b6000611f09826124f5565b611f138185612522565b9350611f2381856020860161266b565b80840191505092915050565b6000611f3c603283612511565b9150611f4782612848565b604082019050919050565b6000611f5f602683612511565b9150611f6a82612897565b604082019050919050565b6000611f82602583612511565b9150611f8d826128e6565b604082019050919050565b6000611fa5601c83612511565b9150611fb082612935565b602082019050919050565b6000611fc8602483612511565b9150611fd38261295e565b604082019050919050565b6000611feb601983612511565b9150611ff6826129ad565b602082019050919050565b600061200e602c83612511565b9150612019826129d6565b604082019050919050565b6000612031603883612511565b915061203c82612a25565b604082019050919050565b6000612054602a83612511565b915061205f82612a74565b604082019050919050565b6000612077602983612511565b915061208282612ac3565b604082019050919050565b600061209a602083612511565b91506120a582612b12565b602082019050919050565b60006120bd602c83612511565b91506120c882612b3b565b604082019050919050565b60006120e0602083612511565b91506120eb82612b8a565b602082019050919050565b6000612103602f83612511565b915061210e82612bb3565b604082019050919050565b6000612126602183612511565b915061213182612c02565b604082019050919050565b6000612149603183612511565b915061215482612c51565b604082019050919050565b600061216c603083612511565b915061217782612ca0565b604082019050919050565b61218b81612652565b82525050565b600061219d8285611efe565b91506121a98284611efe565b91508190509392505050565b60006020820190506121ca6000830184611e6e565b92915050565b60006080820190506121e56000830187611e6e565b6121f26020830186611e6e565b6121ff6040830185612182565b81810360608301526122118184611e8c565b905095945050505050565b60006020820190506122316000830184611e7d565b92915050565b600060208201905081810360008301526122518184611ec5565b905092915050565b6000602082019050818103600083015261227281611f2f565b9050919050565b6000602082019050818103600083015261229281611f52565b9050919050565b600060208201905081810360008301526122b281611f75565b9050919050565b600060208201905081810360008301526122d281611f98565b9050919050565b600060208201905081810360008301526122f281611fbb565b9050919050565b6000602082019050818103600083015261231281611fde565b9050919050565b6000602082019050818103600083015261233281612001565b9050919050565b6000602082019050818103600083015261235281612024565b9050919050565b6000602082019050818103600083015261237281612047565b9050919050565b600060208201905081810360008301526123928161206a565b9050919050565b600060208201905081810360008301526123b28161208d565b9050919050565b600060208201905081810360008301526123d2816120b0565b9050919050565b600060208201905081810360008301526123f2816120d3565b9050919050565b60006020820190508181036000830152612412816120f6565b9050919050565b6000602082019050818103600083015261243281612119565b9050919050565b600060208201905081810360008301526124528161213c565b9050919050565b600060208201905081810360008301526124728161215f565b9050919050565b600060208201905061248e6000830184612182565b92915050565b600061249e6124af565b90506124aa82826126d0565b919050565b6000604051905090565b600067ffffffffffffffff8211156124d4576124d3612808565b5b6124dd82612837565b9050602081019050919050565b600081519050919050565b600081519050919050565b600082825260208201905092915050565b600082825260208201905092915050565b600081905092915050565b600061253882612652565b915061254383612652565b9250827fffffffffffffffffffffffffffffffffffffffffffffffffffffffffffffffff038211156125785761257761277b565b5b828201905092915050565b600061258e82612652565b915061259983612652565b9250826125a9576125a86127aa565b5b828204905092915050565b60006125bf82612652565b91506125ca83612652565b9250828210156125dd576125dc61277b565b5b828203905092915050565b60006125f382612632565b9050919050565b60008115159050919050565b60007fffffffff0000000000000000000000000000000000000000000000000000000082169050919050565b600073ffffffffffffffffffffffffffffffffffffffff82169050919050565b6000819050919050565b82818337600083830152505050565b60005b8381101561268957808201518184015260208101905061266e565b83811115612698576000848401525b50505050565b600060028204905060018216806126b657607f821691505b602082108114156126ca576126c96127d9565b5b50919050565b6126d982612837565b810181811067ffffffffffffffff821117156126f8576126f7612808565b5b80604052505050565b600061270c82612652565b91507fffffffffffffffffffffffffffffffffffffffffffffffffffffffffffffffff82141561273f5761273e61277b565b5b600182019050919050565b600061275582612652565b915061276083612652565b9250826127705761276f6127aa565b5b828206905092915050565b7f4e487b7100000000000000000000000000000000000000000000000000000000600052601160045260246000fd5b7f4e487b7100000000000000000000000000000000000000000000000000000000600052601260045260246000fd5b7f4e487b7100000000000000000000000000000000000000000000000000000000600052602260045260246000fd5b7f4e487b7100000000000000000000000000000000000000000000000000000000600052604160045260246000fd5b6000601f19601f8301169050919050565b7f4552433732313a207472616e7366657220746f206e6f6e20455243373231526560008201527f63656976657220696d706c656d656e7465720000000000000000000000000000602082015250565b7f4f776e61626c653a206e6577206f776e657220697320746865207a65726f206160008201527f6464726573730000000000000000000000000000000000000000000000000000602082015250565b7f4552433732313a207472616e736665722066726f6d20696e636f72726563742060008201527f6f776e6572000000000000000000000000000000000000000000000000000000602082015250565b7f4552433732313a20746f6b656e20616c7265616479206d696e74656400000000600082015250565b7f4552433732313a207472616e7366657220746f20746865207a65726f2061646460008201527f7265737300000000000000000000000000000000000000000000000000000000602082015250565b7f4552433732313a20617070726f766520746f2063616c6c657200000000000000600082015250565b7f4552433732313a206f70657261746f7220717565727920666f72206e6f6e657860008201527f697374656e7420746f6b656e0000000000000000000000000000000000000000602082015250565b7f4552433732313a20617070726f76652063616c6c6572206973206e6f74206f7760008201527f6e6572206e6f7220617070726f76656420666f7220616c6c0000000000000000602082015250565b7f4552433732313a2062616c616e636520717565727920666f7220746865207a6560008201527f726f206164647265737300000000000000000000000000000000000000000000602082015250565b7f4552433732313a206f776e657220717565727920666f72206e6f6e657869737460008201527f656e7420746f6b656e0000000000000000000000000000000000000000000000602082015250565b7f4552433732313a206d696e7420746f20746865207a65726f2061646472657373600082015250565b7f4552433732313a20617070726f76656420717565727920666f72206e6f6e657860008201527f697374656e7420746f6b656e0000000000000000000000000000000000000000602082015250565b7f4f776e61626c653a2063616c6c6572206973206e6f7420746865206f776e6572600082015250565b7f4552433732314d657461646174613a2055524920717565727920666f72206e6f60008201527f6e6578697374656e7420746f6b656e0000000000000000000000000000000000602082015250565b7f4552433732313a20617070726f76616c20746f2063757272656e74206f776e6560008201527f7200000000000000000000000000000000000000000000000000000000000000602082015250565b7f4552433732313a207472616e736665722063616c6c6572206973206e6f74206f60008201527f776e6572206e6f7220617070726f766564000000000000000000000000000000602082015250565b7f4552433732314275726e61626c653a2063616c6c6572206973206e6f74206f7760008201527f6e6572206e6f7220617070726f76656400000000000000000000000000000000602082015250565b612cf8816125e8565b8114612d0357600080fd5b50565b612d0f816125fa565b8114612d1a57600080fd5b50565b612d2681612606565b8114612d3157600080fd5b50565b612d3d81612652565b8114612d4857600080fd5b5056fe68747470733a2f2f6a62612d626c6f636b636861696e2d6861636b6174686f6e2e76657263656c2e6170702fa26469706673582212209fee28fc4262a44910cb096c56a3fb97fe7e9586dff4999344f7c55ec3afa4fc64736f6c63430008040033",
  "linkReferences": {},
  "deployedLinkReferences": {}
}